{
  "contractName": "Candidate",
  "abi": [
    {
      "constant": true,
      "inputs": [],
      "name": "owner",
      "outputs": [
        {
          "name": "",
          "type": "address"
        }
      ],
      "payable": false,
      "stateMutability": "view",
      "type": "function"
    },
    {
      "inputs": [
        {
          "name": "personAddr",
          "type": "address"
        },
        {
          "name": "prop",
          "type": "address[]"
        },
        {
          "name": "sec",
          "type": "address[]"
        },
        {
          "name": "mani",
          "type": "string"
        },
        {
          "name": "cred",
          "type": "string"
        }
      ],
      "payable": false,
      "stateMutability": "nonpayable",
      "type": "constructor"
    },
    {
      "constant": true,
      "inputs": [],
      "name": "getManifesto",
      "outputs": [
        {
          "name": "",
          "type": "string"
        }
      ],
      "payable": false,
      "stateMutability": "view",
      "type": "function"
    },
    {
      "constant": false,
      "inputs": [],
      "name": "getSelfContract",
      "outputs": [
        {
          "name": "",
          "type": "address"
        }
      ],
      "payable": false,
      "stateMutability": "nonpayable",
      "type": "function"
    },
    {
      "constant": false,
      "inputs": [],
      "name": "getSelfAddress",
      "outputs": [
        {
          "name": "",
          "type": "address"
        }
      ],
      "payable": false,
      "stateMutability": "nonpayable",
      "type": "function"
    }
  ],
  "bytecode": "0x608060405234801561001057600080fd5b506040516108d03803806108d0833981018060405260a081101561003357600080fd5b8101908080519060200190929190805164010000000081111561005557600080fd5b8281019050602081018481111561006b57600080fd5b815185602082028301116401000000008211171561008857600080fd5b505092919060200180516401000000008111156100a457600080fd5b828101905060208101848111156100ba57600080fd5b81518560208202830111640100000000821117156100d757600080fd5b505092919060200180516401000000008111156100f357600080fd5b8281019050602081018481111561010957600080fd5b815185600182028301116401000000008211171561012657600080fd5b5050929190602001805164010000000081111561014257600080fd5b8281019050602081018481111561015857600080fd5b815185600182028301116401000000008211171561017557600080fd5b505092919050505033600160006101000a81548173ffffffffffffffffffffffffffffffffffffffff021916908373ffffffffffffffffffffffffffffffffffffffff160217905550846000806101000a81548173ffffffffffffffffffffffffffffffffffffffff021916908373ffffffffffffffffffffffffffffffffffffffff16021790555083600290805190602001906102149291906102ea565b50826003908051906020019061022b9291906102ea565b508160049080519060200190610242929190610374565b5060058054600181600116156101000203166002900480601f0160208091040260200160405190810160405280929190818152602001828054600181600116156101000203166002900480156102d95780601f106102ae576101008083540402835291602001916102d9565b820191906000526020600020905b8154815290600101906020018083116102bc57829003601f168201915b50505050509050505050505061045c565b828054828255906000526020600020908101928215610363579160200282015b828111156103625782518260006101000a81548173ffffffffffffffffffffffffffffffffffffffff021916908373ffffffffffffffffffffffffffffffffffffffff1602179055509160200191906001019061030a565b5b50905061037091906103f4565b5090565b828054600181600116156101000203166002900490600052602060002090601f016020900481019282601f106103b557805160ff19168380011785556103e3565b828001600101855582156103e3579182015b828111156103e25782518255916020019190600101906103c7565b5b5090506103f09190610437565b5090565b61043491905b8082111561043057600081816101000a81549073ffffffffffffffffffffffffffffffffffffffff0219169055506001016103fa565b5090565b90565b61045991905b8082111561045557600081600090555060010161043d565b5090565b90565b6104658061046b6000396000f3fe608060405260043610610062576000357c0100000000000000000000000000000000000000000000000000000000900463ffffffff1680634a822438146100675780638da5cb5b146100be5780639c94e33314610115578063f556fcdb146101a5575b600080fd5b34801561007357600080fd5b5061007c6101fc565b604051808273ffffffffffffffffffffffffffffffffffffffff1673ffffffffffffffffffffffffffffffffffffffff16815260200191505060405180910390f35b3480156100ca57600080fd5b506100d36102b7565b604051808273ffffffffffffffffffffffffffffffffffffffff1673ffffffffffffffffffffffffffffffffffffffff16815260200191505060405180910390f35b34801561012157600080fd5b5061012a6102dc565b6040518080602001828103825283818151815260200191508051906020019080838360005b8381101561016a57808201518184015260208101905061014f565b50505050905090810190601f1680156101975780820380516001836020036101000a031916815260200191505b509250505060405180910390f35b3480156101b157600080fd5b506101ba61037e565b604051808273ffffffffffffffffffffffffffffffffffffffff1673ffffffffffffffffffffffffffffffffffffffff16815260200191505060405180910390f35b60008060009054906101000a900473ffffffffffffffffffffffffffffffffffffffff1673ffffffffffffffffffffffffffffffffffffffff163373ffffffffffffffffffffffffffffffffffffffff1614806102a65750600160009054906101000a900473ffffffffffffffffffffffffffffffffffffffff1673ffffffffffffffffffffffffffffffffffffffff163373ffffffffffffffffffffffffffffffffffffffff16145b15156102b157600080fd5b30905090565b6000809054906101000a900473ffffffffffffffffffffffffffffffffffffffff1681565b606060048054600181600116156101000203166002900480601f0160208091040260200160405190810160405280929190818152602001828054600181600116156101000203166002900480156103745780601f1061034957610100808354040283529160200191610374565b820191906000526020600020905b81548152906001019060200180831161035757829003601f168201915b5050505050905090565b60008060009054906101000a900473ffffffffffffffffffffffffffffffffffffffff1673ffffffffffffffffffffffffffffffffffffffff163373ffffffffffffffffffffffffffffffffffffffff1614806104285750600160009054906101000a900473ffffffffffffffffffffffffffffffffffffffff1673ffffffffffffffffffffffffffffffffffffffff163373ffffffffffffffffffffffffffffffffffffffff16145b151561043357600080fd5b3090509056fea165627a7a72305820a052a93f666596075aa335ae6043e67333b018901ea4ab4265a36d8b2fcc77280029",
  "source": "pragma solidity ^0.5.0;\n\ncontract Candidate {\n    address public owner;\n    address ECAddressCreator;\n\n    // Later conert then to arrays\n    address[] proposers;\n    address[] seconders;\n\n    string manifesto;\n    string credentials;\n    string[] penalties;\n\n    struct penalty {\n        uint32 fineAmount;\n\n    }\n    constructor(\n        address personAddr,\n        address[] memory prop,\n        address[] memory sec,\n        string memory mani,\n        string memory cred\n    ) public {\n        ECAddressCreator = msg.sender;\n        owner = personAddr;\n        proposers = prop;\n        seconders = sec;\n        manifesto = mani;\n        cred = credentials;\n    }\n\n    function getManifesto() public view returns (string memory) {\n        return manifesto;\n    }\n    //function getSeconders() public view returns (string memory) {\n        //string retVal = \"\";\n        //for (uint i = 0; i < seconders.length; i++) {\n            ////strConcat(\"\", )\n        //};\n        //return seconders;\n    //}\n    //function getProposers() public view returns (string memory) {\n        //return proposers;\n    //}\n\n\n    function strConcat(string memory _a, string memory _b) internal returns (string memory) {\n        bytes memory _ba = bytes(_a);\n        bytes memory _bb = bytes(_b);\n        string memory abcde = new string(_ba.length + _bb.length );\n        bytes memory babcde = bytes(abcde);\n        uint k = 0;\n        for (uint i = 0; i < _ba.length; i++) babcde[k++] = _ba[i];\n        for (uint i = 0; i < _bb.length; i++) babcde[k++] = _bb[i];\n        return string(babcde);\n    }\n\n    function getSelfContract() public returns (Candidate) {\n        require (msg.sender == owner || msg.sender == ECAddressCreator);\n        return Candidate(address(this));\n    }\n    \n    function getSelfAddress() public returns (address) {\n        require (msg.sender == owner || msg.sender == ECAddressCreator);\n        return address(this);\n    }\n}\n",
  "sourcePath": "/home/msharma/git/courses/blockchain/Project/contracts/CandidateContract.sol",
  "compiler": {
    "name": "solc",
    "version": "0.5.0+commit.1d4f565a.Emscripten.clang"
  },
  "schemaVersion": "3.0.2",
  "updatedAt": "2019-04-16T00:18:39.729Z",
  "devdoc": {
    "methods": {}
  },
  "userdoc": {
    "methods": {}
  }
}