{
  "contractName": "Ballot",
  "abi": [
    {
      "inputs": [
        {
          "name": "_numProposals",
          "type": "uint8"
        }
      ],
      "payable": false,
      "stateMutability": "nonpayable",
      "type": "constructor"
    },
    {
      "constant": false,
      "inputs": [
        {
          "name": "toVoter",
          "type": "address"
        }
      ],
      "name": "giveRightToVote",
      "outputs": [],
      "payable": false,
      "stateMutability": "nonpayable",
      "type": "function"
    },
    {
      "constant": false,
      "inputs": [
        {
          "name": "to",
          "type": "address"
        }
      ],
      "name": "delegate",
      "outputs": [],
      "payable": false,
      "stateMutability": "nonpayable",
      "type": "function"
    },
    {
      "constant": false,
      "inputs": [
        {
          "name": "toProposal",
          "type": "uint8"
        }
      ],
      "name": "vote",
      "outputs": [],
      "payable": false,
      "stateMutability": "nonpayable",
      "type": "function"
    },
    {
      "constant": true,
      "inputs": [],
      "name": "winningProposal",
      "outputs": [
        {
          "name": "_winningProposal",
          "type": "uint8"
        }
      ],
      "payable": false,
      "stateMutability": "view",
      "type": "function"
    }
  ],
  "bytecode": "0x608060405234801561001057600080fd5b506040516020806108b88339810180604052602081101561003057600080fd5b8101908080519060200190929190505050336000806101000a81548173ffffffffffffffffffffffffffffffffffffffff021916908373ffffffffffffffffffffffffffffffffffffffff16021790555060018060008060009054906101000a900473ffffffffffffffffffffffffffffffffffffffff1673ffffffffffffffffffffffffffffffffffffffff1673ffffffffffffffffffffffffffffffffffffffff168152602001908152602001600020600001819055508060ff166002816100fa9190610101565b5050610154565b81548183558181111561012857818360005260206000209182019101610127919061012d565b5b505050565b61015191905b8082111561014d5760008082016000905550600101610133565b5090565b90565b610755806101636000396000f3fe608060405260043610610062576000357c0100000000000000000000000000000000000000000000000000000000900463ffffffff1680635c19a95c14610067578063609ff1bd146100b85780639e7b8d61146100e9578063b3f98adc1461013a575b600080fd5b34801561007357600080fd5b506100b66004803603602081101561008a57600080fd5b81019080803573ffffffffffffffffffffffffffffffffffffffff169060200190929190505050610178565b005b3480156100c457600080fd5b506100cd6104cd565b604051808260ff1660ff16815260200191505060405180910390f35b3480156100f557600080fd5b506101386004803603602081101561010c57600080fd5b81019080803573ffffffffffffffffffffffffffffffffffffffff169060200190929190505050610549565b005b34801561014657600080fd5b506101766004803603602081101561015d57600080fd5b81019080803560ff169060200190929190505050610646565b005b6000600160003373ffffffffffffffffffffffffffffffffffffffff1673ffffffffffffffffffffffffffffffffffffffff16815260200190815260200160002090508060010160009054906101000a900460ff16156101d857506104ca565b5b600073ffffffffffffffffffffffffffffffffffffffff16600160008473ffffffffffffffffffffffffffffffffffffffff1673ffffffffffffffffffffffffffffffffffffffff16815260200190815260200160002060010160029054906101000a900473ffffffffffffffffffffffffffffffffffffffff1673ffffffffffffffffffffffffffffffffffffffff161415801561030657503373ffffffffffffffffffffffffffffffffffffffff16600160008473ffffffffffffffffffffffffffffffffffffffff1673ffffffffffffffffffffffffffffffffffffffff16815260200190815260200160002060010160029054906101000a900473ffffffffffffffffffffffffffffffffffffffff1673ffffffffffffffffffffffffffffffffffffffff1614155b1561037557600160008373ffffffffffffffffffffffffffffffffffffffff1673ffffffffffffffffffffffffffffffffffffffff16815260200190815260200160002060010160029054906101000a900473ffffffffffffffffffffffffffffffffffffffff1691506101d9565b3373ffffffffffffffffffffffffffffffffffffffff168273ffffffffffffffffffffffffffffffffffffffff1614156103af57506104ca565b60018160010160006101000a81548160ff021916908315150217905550818160010160026101000a81548173ffffffffffffffffffffffffffffffffffffffff021916908373ffffffffffffffffffffffffffffffffffffffff1602179055506000600160008473ffffffffffffffffffffffffffffffffffffffff1673ffffffffffffffffffffffffffffffffffffffff16815260200190815260200160002090508060010160009054906101000a900460ff16156104b057816000015460028260010160019054906101000a900460ff1660ff1681548110151561049157fe5b90600052602060002001600001600082825401925050819055506104c7565b816000015481600001600082825401925050819055505b50505b50565b6000806000905060008090505b6002805490508160ff161015610544578160028260ff168154811015156104fd57fe5b906000526020600020016000015411156105375760028160ff1681548110151561052357fe5b906000526020600020016000015491508092505b80806001019150506104da565b505090565b6000809054906101000a900473ffffffffffffffffffffffffffffffffffffffff1673ffffffffffffffffffffffffffffffffffffffff163373ffffffffffffffffffffffffffffffffffffffff161415806105f15750600160008273ffffffffffffffffffffffffffffffffffffffff1673ffffffffffffffffffffffffffffffffffffffff16815260200190815260200160002060010160009054906101000a900460ff165b156105fb57610643565b60018060008373ffffffffffffffffffffffffffffffffffffffff1673ffffffffffffffffffffffffffffffffffffffff168152602001908152602001600020600001819055505b50565b6000600160003373ffffffffffffffffffffffffffffffffffffffff1673ffffffffffffffffffffffffffffffffffffffff16815260200190815260200160002090508060010160009054906101000a900460ff16806106ae57506002805490508260ff1610155b156106b95750610726565b60018160010160006101000a81548160ff021916908315150217905550818160010160016101000a81548160ff021916908360ff160217905550806000015460028360ff1681548110151561070a57fe5b9060005260206000200160000160008282540192505081905550505b5056fea165627a7a7230582009a028ba6dd2434222110fa189e42bfc4e00f07abaa97265d37f382f209b43600029",
  "source": "pragma solidity >=0.4.22 <0.6.0;\ncontract Ballot {\n\n    struct Voter {\n        uint weight;\n        bool voted;\n        uint8 vote;\n        address delegate;\n    }\n    struct Proposal {\n        uint voteCount;\n    }\n\n    address chairperson;\n    mapping(address => Voter) voters;\n    Proposal[] proposals;\n\n    /// Create a new ballot with $(_numProposals) different proposals.\n    constructor(uint8 _numProposals) public {\n        chairperson = msg.sender;\n        voters[chairperson].weight = 1;\n        proposals.length = _numProposals;\n    }\n\n    /// Give $(toVoter) the right to vote on this ballot.\n    /// May only be called by $(chairperson).\n    function giveRightToVote(address toVoter) public {\n        if (msg.sender != chairperson || voters[toVoter].voted) return;\n        voters[toVoter].weight = 1;\n    }\n\n    /// Delegate your vote to the voter $(to).\n    function delegate(address to) public {\n        Voter storage sender = voters[msg.sender]; // assigns reference\n        if (sender.voted) return;\n        while (voters[to].delegate != address(0) && voters[to].delegate != msg.sender)\n            to = voters[to].delegate;\n        if (to == msg.sender) return;\n        sender.voted = true;\n        sender.delegate = to;\n        Voter storage delegateTo = voters[to];\n        if (delegateTo.voted)\n            proposals[delegateTo.vote].voteCount += sender.weight;\n        else\n            delegateTo.weight += sender.weight;\n    }\n\n    /// Give a single vote to proposal $(toProposal).\n    function vote(uint8 toProposal) public {\n        Voter storage sender = voters[msg.sender];\n        if (sender.voted || toProposal >= proposals.length) return;\n        sender.voted = true;\n        sender.vote = toProposal;\n        proposals[toProposal].voteCount += sender.weight;\n    }\n\n    function winningProposal() public view returns (uint8 _winningProposal) {\n        uint256 winningVoteCount = 0;\n        for (uint8 prop = 0; prop < proposals.length; prop++)\n            if (proposals[prop].voteCount > winningVoteCount) {\n                winningVoteCount = proposals[prop].voteCount;\n                _winningProposal = prop;\n            }\n    }\n}\n",
  "sourcePath": "/home/msharma/git/blockchain/SmartContractDemo/HelloWorld/contracts/ballot.sol",
  "compiler": {
    "name": "solc",
    "version": "0.5.0+commit.1d4f565a.Emscripten.clang"
  },
  "schemaVersion": "3.0.2",
  "updatedAt": "2019-02-14T17:45:03.271Z",
  "devdoc": {
    "methods": {}
  },
  "userdoc": {
    "methods": {
      "constructor": "Create a new ballot with $(_numProposals) different proposals.",
      "delegate(address)": {
        "notice": "Delegate your vote to the voter $(to)."
      },
      "giveRightToVote(address)": {
        "notice": "Give $(toVoter) the right to vote on this ballot. May only be called by $(chairperson)."
      },
      "vote(uint8)": {
        "notice": "Give a single vote to proposal $(toProposal)."
      }
    }
  }
}