{
  "contractName": "HelloWorld",
  "abi": [
    {
      "inputs": [],
      "payable": false,
      "stateMutability": "nonpayable",
      "type": "constructor",
      "signature": "constructor"
    },
    {
      "constant": false,
      "inputs": [],
      "name": "hi",
      "outputs": [
        {
          "name": "",
          "type": "string"
        }
      ],
      "payable": false,
      "stateMutability": "nonpayable",
      "type": "function",
      "signature": "0xa99dca3f"
    }
  ],
  "bytecode": "0x608060405234801561001057600080fd5b5061013f806100206000396000f3fe608060405260043610610041576000357c0100000000000000000000000000000000000000000000000000000000900463ffffffff168063a99dca3f14610046575b600080fd5b34801561005257600080fd5b5061005b6100d6565b6040518080602001828103825283818151815260200191508051906020019080838360005b8381101561009b578082015181840152602081019050610080565b50505050905090810190601f1680156100c85780820380516001836020036101000a031916815260200191505b509250505060405180910390f35b60606040805190810160405280600c81526020017f48656c6c6f20576f726c6421000000000000000000000000000000000000000081525090509056fea165627a7a7230582047e87388dccba8fe0def8cb52d88e40b0538554783b9fd92c76d5cb7d1acdf2d0029",
  "source": "pragma solidity ^0.5.0;\n\n\ncontract HelloWorld {\n\tfunction hi() public returns (string memory) {\n\t\treturn (\"Hello World!\");\n\t}\n\tconstructor() public {\n\t}\n}\n",
  "sourcePath": "/home/msharma/git/blockchain/SmartContractDemo/HelloWorld/contracts/HelloWorld.sol",
  "compiler": {
    "name": "solc",
    "version": "0.5.0+commit.1d4f565a.Emscripten.clang"
  },
  "schemaVersion": "3.0.2",
  "updatedAt": "2019-02-14T18:00:12.630Z",
  "devdoc": {
    "methods": {}
  },
  "userdoc": {
    "methods": {}
  }
}