{
  "contractName": "MyFirstContract",
  "abi": [
    {
      "inputs": [],
      "payable": false,
      "stateMutability": "nonpayable",
      "type": "constructor"
    },
    {
      "constant": true,
      "inputs": [],
      "name": "getBalance",
      "outputs": [
        {
          "name": "",
          "type": "uint256"
        }
      ],
      "payable": false,
      "stateMutability": "view",
      "type": "function"
    }
  ],
  "bytecode": "0x6080604052348015600f57600080fd5b50606460008190555060a1806100266000396000f3fe608060405260043610603f576000357c0100000000000000000000000000000000000000000000000000000000900463ffffffff16806312065fe0146044575b600080fd5b348015604f57600080fd5b506056606c565b6040518082815260200191505060405180910390f35b6000805490509056fea165627a7a723058204e390bc8510937ae4531a395a9e24a4542d47acd5f790deec6d3a2ff7ed67e490029",
  "source": "pragma solidity ^0.5.0;\n\n// Create a new Contract\ncontract MyFirstContract {\n\t// Declare balance as a uint (256 bit unsigned int) \n\tuint balance;\n\n\t// View function getBalance - View functions promise to not make any changes to state of contract \n\t// Return Value Type (uint) \n\tfunction getBalance() public view returns (uint) {\n\t\treturn balance;\n\t}\n\n\t// constructor sets balance \n\tconstructor() public {\n\t\tbalance = 100;\n\t}\n}\n",
  "sourcePath": "/home/msharma/git/blockchain/SmartContractDemo/HelloWorld/contracts/MyFirstContract.sol",
  "compiler": {
    "name": "solc",
    "version": "0.5.0+commit.1d4f565a.Emscripten.clang"
  },
  "schemaVersion": "3.0.2",
  "updatedAt": "2019-02-14T19:42:28.977Z",
  "devdoc": {
    "methods": {}
  },
  "userdoc": {
    "methods": {}
  }
}